:100000000C942A000C943F000C943F000C943F0089
:100010000C943F000C943F000C943F000C943F0064
:100020000C943F000C943F000C943F000C943F0054
:100030000C943F000C943F000C943F000C943F0044
:100040000C943F000C943F000C943F000C943F0034
:100050000C943F0011241FBECFE5D8E0DEBFCDBF1A
:1000600011E0A0E6B0E0E4EEFCE002C005900D92E5
:10007000AE37B107D9F70E947A030C9470060C943E
:10008000000086E880BD88E18AB94F9810BC87E6F9
:1000900089B9599A08955D9BFECF8CB908955F9BED
:1000A000FECF8CB10895DC015F9BFECF8CB18C93A9
:1000B00090E008C09F5F5F9BFECF8CB1FD01E90F10
:1000C000F11D8083FD01E90FF11D8081833291F7DD
:1000D0001082089520E004C05D9BFECFECB92F5F35
:1000E000FC01E20FF11DE081EE23B1F708954130EC
:1000F000B1F5813099F0813030F08230D1F0833029
:1001000009F065C021C02BB381E090E002C0880FE8
:10011000991F6A95E2F7282B2BBB089528B381E03D
:1001200090E002C0880F991F6A95E2F7282B28BB40
:10013000089525B381E090E002C0880F991F6A9569
:10014000E2F7282B25BB089522B381E090E002C09E
:10015000880F991F6A95E2F7282B22BB08958130FA
:1001600099F0813028F08230D9F0833081F524C0B5
:100170002BB381E090E002C0880F991F6A95E2F7E7
:10018000809582238BBB089528B381E090E002C064
:10019000880F991F6A95E2F78095822388BB08959E
:1001A00025B381E090E002C0880F991F6A95E2F7BD
:1001B0008095822385BB089522B381E090E002C040
:1001C000880F991F6A95E2F78095822382BB089574
:1001D000813049F0813028F0823039F0833041F4A9
:1001E00006C06BBB089568BB089565BB089562BBEC
:1001F0000895813091F0813028F08230C9F0833049
:1002000061F521C02BB381E090E002C0880F991FF7
:100210006A95E2F728272BBB089528B381E090E088
:1002200002C0880F991F6A95E2F7282728BB089516
:1002300025B381E090E002C0880F991F6A95E2F72C
:10024000282725BB089522B381E090E002C0880FE3
:10025000991F6A95E2F7282722BB0895813051F053
:10026000813030F0823041F0833079F080E00895C1
:1002700089B303C086B301C083B390E002C09595F3
:1002800087956A95E2F78170089580B390E002C087
:10029000959587956A95E2F781700895813051F0C0
:1002A000813030F0823041F0833041F080E00895B9
:1002B00089B3089586B3089583B3089580B30895EC
:1002C0004130B1F5813099F0813030F08230D1F099
:1002D000833009F065C021C02AB381E090E002C0FC
:1002E000880F991F6A95E2F7282B2ABB089527B338
:1002F00081E090E002C0880F991F6A95E2F7282BF1
:1003000027BB089524B381E090E002C0880F991FB5
:100310006A95E2F7282B24BB089521B381E090E091
:1003200002C0880F991F6A95E2F7282B21BB089518
:10033000813099F0813028F08230D9F0833081F516
:1003400024C02AB381E090E002C0880F991F6A950B
:10035000E2F7809582238ABB089527B381E090E07D
:1003600002C0880F991F6A95E2F78095822387BBA8
:10037000089524B381E090E002C0880F991F6A9528
:10038000E2F78095822384BB089521B381E090E059
:1003900002C0880F991F6A95E2F78095822381BB7E
:1003A0000895813049F0813028F0823039F083306F
:1003B00041F406C06ABB089567BB089564BB089505
:1003C00061BB0895FF920F931F93F82E81E060E0C8
:1003D00041E00E94770081E061E040E00E94770008
:1003E00000ED17E0C8010197F1F782E06F2D0E9440
:1003F000E800C8010197F1F781E062E041E00E9466
:100400007700C8010197F1F781E062E040E00E94C7
:100410007700C8010197F1F71F910F91FF900895A0
:10042000CF93DF93EC0102C00E94E20189918823FF
:10043000D9F7DF91CF910895EF92FF920F931F9319
:10044000DF93CF930F92CDB7DEB78C0197FF0AC031
:100450008DE20E94E20188279927801B910B0E9460
:100460001C0206C0009721F480E30E94E20107C04D
:10047000C8016AE070E00E944906892B11F01982D8
:1004800004C00F5F1F4F81E08983EE24FF2417C053
:10049000C70133E0880F991F3A95E1F7EE0CFF1C76
:1004A000E80EF91EC8016AE070E00E944906E80EF5
:1004B000F91EC8016AE070E00E9449068B0110161F
:1004C000110634F318C0C7016AE070E00E944906C3
:1004D000805D0E94E201C7016AE070E00E94490667
:1004E0007B016130710539F4F981F13061F780E306
:1004F0000E94E20103C01E141F042CF30F90CF9141
:10050000DF911F910F91FF90EF9008950F931F932C
:10051000182F81E060E040E00E94770081E061E018
:1005200040E00E94770082E0612F0E94E80000ED29
:1005300017E0C8010197F1F781E062E041E00E9415
:100540007700C8010197F1F781E062E040E00E9486
:1005500077001F910F91089560588295880F880F3A
:10056000807C860F0E94860208950F931F93CF937D
:10057000DF938B01880F880F880F805C0E948602B2
:10058000C0E0D0E0F801EC0FFD1F80810E94E20185
:100590002196C830D105B1F780E060E00E94AC023E
:1005A000DF91CF911F910F9108950F931F9381E0D9
:1005B00060E041E00E94600181E061E041E00E9472
:1005C000600181E062E041E00E94600182E06FEF43
:1005D0000E94D10180E991E028EC30E0F9013197E7
:1005E000F1F70197D9F788E30E94860200ED17E042
:1005F000C8010197F1F78CE00E948602C8010197BB
:10060000F1F781E00E94860280EA9FE00197F1F70E
:1006100086E00E9486021F910F910895FC0120E060
:1006200030E010C0C90163E0880F991F6A95E1F7B7
:10063000220F331F820F931F242F30E020533040AE
:10064000280F391F4191442369F7C901089581E0BA
:100650000E94860280E690E00E94100288E893E102
:1006600028EC30E0F9013197F1F70197D9F780E0F4
:1006700063E041E00E94770080E060E041E00E949A
:1006800077008FEF9FEF28EC30E0F9013197F1F719
:100690000197D9F780E060E040E00E94770080E0B9
:1006A00063E040E00E9477000895CF93DF93EB0171
:1006B000803319F480E061E011C0813331F480E0CF
:1006C00061E040E00E94770012C0823319F480E0BC
:1006D00062E0F7CF833321F480E062E041E0F2CFC3
:1006E000893329F480E790E00E946A001882DF9144
:1006F000CF9108952F923F924F925F926F927F9287
:100700008F929F92AF92BF92CF92DF92EF92FF9221
:100710000F931F93DF93CF93CDB7DEB7C550D14072
:100720000FB6F894DEBF0FBECDBF0E9441000E94FD
:10073000D50280E06FEF0E94D101FE0176968CE039
:10074000DF011D928A95E9F7DE015896E4E2F1E0B7
:1007500086E001900D928150E1F71E8E1F8E18A247
:1007600019A22CE0FE01B296DF01822F1D928A951C
:10077000E9F781E69DE6A2E7B0E08CA39DA3AEA3D6
:10078000BFA3FE01B89686E0DF011D928A95E9F7C6
:10079000FE01BE96DF011D922A95E9F7DE01D09693
:1007A000EEE2F1E087E001900D928150E1F7FE0169
:1007B000F79683E0DF011D928A95E9F7FE01FA962C
:1007C0008CE0DF011D928A95E9F7DE01DC96E8E313
:1007D000F1E088E001900D928150E1F7FE01EC5BC1
:1007E000FF4F11821082DE01AA5BBF4F8CE0FD013A
:1007F00011928A95E9F79D012E5F3F4F42E451E047
:1008000089E0FA010190AF01F90101929F01815045
:10081000C1F71B961C92DE01AE5ABF4F8CE0FD0162
:1008200011928A95E9F79D012E5F3F4F4CE451E00C
:1008300086E0FA010190AF01F90101929F01815018
:10084000C1F718961D921D921D921C921B97FE01D6
:10085000E25AFF4F8CE0DF011D928A95E9F79F0174
:100860002E5F3F4F46E551E087E0DA010D90AD0184
:10087000D9010D929D018150C1F7399683E0DF01C6
:100880001D928A95E9F7DE01A659BF4F8CE0FD0164
:1008900011928A95E9F79D012E5F3F4F40E651E0A6
:1008A00086E0FA010190AF01F90101929F018150A8
:1008B000C1F718961D921D921D921C921B97DE0186
:1008C000AA58BF4F8CE0FD0111928A95E9F79D016E
:1008D0002E5F3F4F4AE651E088E0FA010190AF01F8
:1008E000F90101929F018150C1F71B961C921E9243
:1008F0001A97FE01EE57FF4F8CE0DF011D928A959B
:10090000E9F79F012E5F3F4F44E751E085E0DA01B0
:100910000D90AD01D9010D929D018150C1F737961F
:1009200085E0DF011D928A95E9F7DE01A257BF4FEE
:10093000FE0176968CE001900D928150E1F787E5FB
:1009400094E09BA38AA3DE01A656BF4FFE01B29698
:100950008CE001900D928150E1F78EEA98E09FA71C
:100960008EA7DE01AA55BF4FFE01BE968CE0019016
:100970000D928150E1F785E09DE09BAF8AAFDE01EB
:10098000AE54BF4FFE01FA968CE001900D9281505B
:10099000E1F7FE01EA5BFF4F8CE591E191838083F3
:1009A000DE01A254BF4F8CE001900D928150E1F71F
:1009B000FE01EE5AFF4F83EB95E191838083DE01C8
:1009C000A653BF4F8CE001900D928150E1F7FE01DC
:1009D000E25AFF4F8AE09AE191838083DE01AA52B6
:1009E000BF4F8CE001900D928150E1F7FE01E65976
:1009F000FF4F81E69EE191838083DE01AE51BF4FC0
:100A00008CE001900D928150E1F7FE01EA58FF4F12
:100A100088EB92E291838083DE01A251BF4F8CE08C
:100A200001900D928150E1F7FE01EE57FF4F8FE0EC
:100A300097E291838083DE01A650BF4F8CE0019046
:100A40000D928150E1F7198210E0552400E092E008
:100A5000A92EB12CAC0EBD1E88ECE82EF12CBCE00A
:100A6000CB2ED12CCC0EDD1EAEE86A2E712C6C0E76
:100A70007D1EF3E08F2E912CE3E34E2E1E01089491
:100A8000211C311C8981882309F0E6C081E00E9485
:100A900086028AE890E00E94100286E990E00E94B7
:100AA0006A00C5010E94530081E060E00E94AC0230
:100AB000C5010E94100288E893E1F7013197F1F730
:100AC0000197D9F781E00E94860285EA90E00E94B2
:100AD000100281EB90E00E946A00C6010E94530060
:100AE00081E060E00E94AC02C6010E94100288E82A
:100AF00093E1F7013197F1F70197D9F750E040E022
:100B00001CC0842F90E0FC01EE0FFF1FE80FF91FBF
:100B1000EE0FFF1FEE0FFF1FE60DF71DE20FF31F95
:100B20008281681721F45F5F0F5F542E06C04F5F0C
:100B30004A3009F464C050E000E0252F30E0F501B0
:100B4000E20FF31F60816623E1F6002309F458C029
:100B5000C6010E940E03252D30E0F901EE0FFF1FA4
:100B6000E20FF31FEE0FFF1FEE0FFF1FE60DF71D45
:100B70002081318182179307A9F481E00E948602C7
:100B800080EC90E00E9410028FEC90E00E946A00DE
:100B900088E893E1F7013197F1F70197D9F781E000
:100BA00089835EC01F5F81E00E9486028FED90E026
:100BB0000E94100289EE90E00E946A0081E060E0ED
:100BC0000E94AC02C401811B91090E941C02842D69
:100BD000811B0E944B0081E064E00E94AC0284EF24
:100BE00090E00E9410028FEF90E00E946A0088E877
:100BF00093E1F7013197F1F70197D9F72DC000E0A4
:100C00001F5F81E00E9486028FED90E00E9410023B
:100C100089EE90E00E946A0081E060E00E94AC02F0
:100C2000C401811B91090E941C02842D811B0E941A
:100C30004B0081E064E00E94AC0284EF90E00E94EF
:100C400010028FEF90E00E946A0088E893E1F701BC
:100C50003197F1F70197D9F7133019F40E94270360
:100C600010E08981813009F00DCF0E9486028CE06E
:100C700091E00E94100281E060E00E94AC028AE1F3
:100C800091E00E9410020E944F00B1010E945503A2
:100C9000F9CE97FB092E07260AD077FD04D00CD099
:100CA00006D000201AF4709561957F4F0895F6F7ED
:100CB000909581959F4F0895AA1BBB1B51E107C0DA
:100CC000AA1FBB1FA617B70710F0A61BB70B881FDC
:100CD000991F5A95A9F780959095BC01CD0108956B
:040CE000F894FFCFB6
:100CE400496D706F73746F72416D6F6E67557300E9
:100CF4005369676E6564204F75742053756363652B
:100D0400737366756C6C79200A00557365726E6135
:100D14006D65203A200053656E6420557365726ECC
:100D2400616D650A0050617373776F7264203A20B5
:100D34000053656E642050617373776F72640A00A8
:100D4400416363657373204772616E746564004127
:100D54006363657373204772616E7465640A004946
:100D64006E636F727265637400496E636F7272654D
:100D7400637420005472696573204C6566740020A6
:100D84005472696573204C6566740A004C6967681F
:100D94007473204F6E2F4F666600446F6F72204C41
:100DA4006F6F6B0061686D6164000000000067652F
:100DB40064617779000000006D6F68616D6564009F
:100DC4000000616264756C6C61680000796F737215
:100DD4007900000000007368616D656C000000001C
:100DE4006D617A656E00000000006D61686D6F755D
:0E0DF40064000000616C6161000000000000FE
:00000001FF
